tcpdump: verbose output suppressed, use -v[v]... for full protocol decode
listening on enx90cc245d2254, link-type EN10MB (Ethernet), snapshot length 262144 bytes
00:06:40.279050 LLDP, length 47
	0x0000:  020a 0748 4f4d 4552 4947 2d30 0407 0304  ...HOMERIG-0....
	0x0010:  bf1b 8c98 3e06 020e 11fe 0900 120f 0103  ....>...........
	0x0020:  0001 0000 fe07 0012 bb01 0001 0100 00    ...............
00:06:40.284328 IP6 :: > ff02::16: HBH ICMP6, multicast listener report v2, 2 group record(s), length 48
	0x0000:  6000 0000 0038 0001 0000 0000 0000 0000  `....8..........
	0x0010:  0000 0000 0000 0000 ff02 0000 0000 0000  ................
	0x0020:  0000 0000 0000 0016 3a00 0502 0000 0100  ........:.......
	0x0030:  8f00 66d0 0000 0002 0400 0000 ff02 0000  ..f.............
	0x0040:  0000 0000 0000 0000 0000 00fb 0400 0000  ................
	0x0050:  ff02 0000 0000 0000 0000 0001 ffe0 03c7  ................
00:06:40.297908 ARP, Request who-has 172.16.99.2 tell 0.0.0.0, length 28
	0x0000:  0001 0800 0604 0001 90cc 245d 2254 0000  ..........$]"T..
	0x0010:  0000 0000 0000 0000 ac10 6302            ..........c.
00:06:40.353593 ARP, Request who-has 172.16.99.2 tell 0.0.0.0, length 28
	0x0000:  0001 0800 0604 0001 90cc 245d 2254 0000  ..........$]"T..
	0x0010:  0000 0000 0000 0000 ac10 6302            ..........c.
00:06:40.407046 ARP, Request who-has 172.16.99.2 tell 0.0.0.0, length 28
	0x0000:  0001 0800 0604 0001 90cc 245d 2254 0000  ..........$]"T..
	0x0010:  0000 0000 0000 0000 ac10 6302            ..........c.
00:06:40.452277 ARP, Request who-has 172.16.99.2 tell 172.16.99.2, length 28
	0x0000:  0001 0800 0604 0001 90cc 245d 2254 ac10  ..........$]"T..
	0x0010:  6302 0000 0000 0000 ac10 6302            c.........c.
00:06:40.454323 IP 172.16.99.2 > 224.0.0.22: igmp v3 report, 1 group record(s)
	0x0000:  46c0 0028 0000 4000 0102 f4e6 ac10 6302  F..(..@.......c.
	0x0010:  e000 0016 9404 0000 2200 f902 0000 0001  ........".......
	0x0020:  0400 0000 e000 00fb                      ........
00:06:40.493607 ARP, Request who-has 185.125.190.18 tell 172.16.99.2, length 28
	0x0000:  0001 0800 0604 0001 90cc 245d 2254 ac10  ..........$]"T..
	0x0010:  6302 0000 0000 0000 b97d be12            c........}..
00:06:40.552437 IP 172.16.99.2.5353 > 224.0.0.251.5353: 0 [9q] PTR (QM)? _ipps._tcp.local. PTR (QM)? _ftp._tcp.local. PTR (QM)? _webdav._tcp.local. PTR (QM)? _webdavs._tcp.local. PTR (QM)? _sftp-ssh._tcp.local. PTR (QM)? _smb._tcp.local. PTR (QM)? _afpovertcp._tcp.local. PTR (QM)? _nfs._tcp.local. PTR (QM)? _ipp._tcp.local. (141)
	0x0000:  4500 00a9 7877 4000 ff11 12be ac10 6302  E...xw@.......c.
	0x0010:  e000 00fb 14e9 14e9 0095 5947 0000 0000  ..........YG....
	0x0020:  0009 0000 0000 0000 055f 6970 7073 045f  ........._ipps._
	0x0030:  7463 7005 6c6f 6361 6c00 000c 0001 045f  tcp.local......_
	0x0040:  6674 70c0 1200 0c00 0107 5f77 6562 6461  ftp......._webda
	0x0050:  76c0 1200 0c00 0108 5f77 6562 6461 7673  v......._webdavs
	0x0060:  c012 000c 0001 095f 7366 7470 2d73 7368  ......._sftp-ssh
	0x0070:  c012 000c 0001 045f 736d 62c0 1200 0c00  ......._smb.....
	0x0080:  010b 5f61 6670 6f76 6572 7463 70c0 1200  .._afpovertcp...
	0x0090:  0c00 0104 5f6e 6673 c012 000c 0001 045f  ...._nfs......._
	0x00a0:  6970 70c0 1200 0c00 01                   ipp......
00:06:40.553591 IP 172.16.99.2.5353 > 224.0.0.251.5353: 0 [3q] [4n] ANY (QM)? 7.c.3.0.0.e.6.8.5.a.0.8.0.6.6.9.0.0.0.0.0.0.0.0.0.0.0.0.0.8.e.f.ip6.arpa. ANY (QM)? homerig.local. ANY (QM)? 2.99.16.172.in-addr.arpa. (207)
	0x0000:  4500 00eb 7878 4000 ff11 127b ac10 6302  E...xx@....{..c.
	0x0010:  e000 00fb 14e9 14e9 00d7 37dd 0000 0000  ..........7.....
	0x0020:  0003 0000 0004 0000 0137 0163 0133 0130  .........7.c.3.0
	0x0030:  0130 0165 0136 0138 0135 0161 0130 0138  .0.e.6.8.5.a.0.8
	0x0040:  0130 0136 0136 0139 0130 0130 0130 0130  .0.6.6.9.0.0.0.0
	0x0050:  0130 0130 0130 0130 0130 0130 0130 0130  .0.0.0.0.0.0.0.0
	0x0060:  0130 0138 0165 0166 0369 7036 0461 7270  .0.8.e.f.ip6.arp
	0x0070:  6100 00ff 0001 0768 6f6d 6572 6967 056c  a......homerig.l
	0x0080:  6f63 616c 0000 ff00 0101 3202 3939 0231  ocal......2.99.1
	0x0090:  3603 3137 3207 696e 2d61 6464 72c0 5000  6.172.in-addr.P.
	0x00a0:  ff00 01c0 5a00 0100 0100 0000 7800 04ac  ....Z.......x...
	0x00b0:  1063 02c0 6d00 0c00 0100 0000 7800 02c0  .c..m.......x...
	0x00c0:  5ac0 5a00 1c00 0100 0000 7800 10fe 8000  Z.Z.......x.....
	0x00d0:  0000 0000 0096 6080 a586 e003 c7c0 0c00  ......`.........
	0x00e0:  0c00 0100 0000 7800 02c0 5a              ......x...Z
10 packets captured
11 packets received by filter
0 packets dropped by kernel
